{
  "contractName": "communication",
  "abi": [
    {
      "inputs": [
        {
          "internalType": "address",
          "name": "from",
          "type": "address"
        },
        {
          "internalType": "address",
          "name": "to",
          "type": "address"
        },
        {
          "internalType": "string",
          "name": "message",
          "type": "string"
        }
      ],
      "name": "sendMessage",
      "outputs": [],
      "stateMutability": "nonpayable",
      "type": "function"
    },
    {
      "inputs": [],
      "name": "viewMessages",
      "outputs": [
        {
          "internalType": "string[]",
          "name": "",
          "type": "string[]"
        },
        {
          "internalType": "address[]",
          "name": "",
          "type": "address[]"
        },
        {
          "internalType": "address[]",
          "name": "",
          "type": "address[]"
        }
      ],
      "stateMutability": "view",
      "type": "function",
      "constant": true
    },
    {
      "inputs": [
        {
          "internalType": "address",
          "name": "wallet",
          "type": "address"
        },
        {
          "internalType": "string",
          "name": "filehash",
          "type": "string"
        },
        {
          "internalType": "address",
          "name": "to",
          "type": "address"
        }
      ],
      "name": "sendFiles",
      "outputs": [],
      "stateMutability": "nonpayable",
      "type": "function"
    },
    {
      "inputs": [],
      "name": "viewFiles",
      "outputs": [
        {
          "internalType": "address[]",
          "name": "",
          "type": "address[]"
        },
        {
          "internalType": "string[]",
          "name": "",
          "type": "string[]"
        },
        {
          "internalType": "address[][]",
          "name": "",
          "type": "address[][]"
        }
      ],
      "stateMutability": "view",
      "type": "function",
      "constant": true
    }
  ],
  "bytecode": "0x608060405234801561001057600080fd5b50611133806100206000396000f3fe608060405234801561001057600080fd5b506004361061004c5760003560e01c80632a8b051814610051578063991b68bb14610071578063b88e318d1461008d578063e43fdb6c146100a9575b600080fd5b6100596100c9565b60405161006893929190610b2a565b60405180910390f35b61008b60048036038101906100869190610ceb565b610309565b005b6100a760048036038101906100a29190610d5a565b610417565b005b6100b1610517565b6040516100c093929190610dc9565b60405180910390f35b60608060606003600460058280548060200260200160405190810160405280929190818152602001828054801561015557602002820191906000526020600020905b8160009054906101000a900473ffffffffffffffffffffffffffffffffffffffff1673ffffffffffffffffffffffffffffffffffffffff168152602001906001019080831161010b575b5050505050925081805480602002602001604051908101604052809291908181526020016000905b8282101561022957838290600052602060002001805461019c90610e44565b80601f01602080910402602001604051908101604052809291908181526020018280546101c890610e44565b80156102155780601f106101ea57610100808354040283529160200191610215565b820191906000526020600020905b8154815290600101906020018083116101f857829003601f168201915b50505050508152602001906001019061017d565b50505050915080805480602002602001604051908101604052809291908181526020016000905b828210156102f8578382906000526020600020018054806020026020016040519081016040528092919081815260200182805480156102e457602002820191906000526020600020905b8160009054906101000a900473ffffffffffffffffffffffffffffffffffffffff1673ffffffffffffffffffffffffffffffffffffffff168152602001906001019080831161029a575b505050505081526020019060010190610250565b505050509050925092509250909192565b6003839080600181540180825580915050600190039060005260206000200160009091909190916101000a81548173ffffffffffffffffffffffffffffffffffffffff021916908373ffffffffffffffffffffffffffffffffffffffff1602179055506004829080600181540180825580915050600190039060005260206000200160009091909190915090816103a0919061102b565b50600560405180602001604052808373ffffffffffffffffffffffffffffffffffffffff1673ffffffffffffffffffffffffffffffffffffffff1681525090806001815401808255809150506001900390600052602060002001600090919091909150906001610411929190610710565b50505050565b60008190806001815401808255809150506001900390600052602060002001600090919091909150908161044b919061102b565b506001839080600181540180825580915050600190039060005260206000200160009091909190916101000a81548173ffffffffffffffffffffffffffffffffffffffff021916908373ffffffffffffffffffffffffffffffffffffffff1602179055506002829080600181540180825580915050600190039060005260206000200160009091909190916101000a81548173ffffffffffffffffffffffffffffffffffffffff021916908373ffffffffffffffffffffffffffffffffffffffff160217905550505050565b606080606060006001600282805480602002602001604051908101604052809291908181526020016000905b828210156105ef57838290600052602060002001805461056290610e44565b80601f016020809104026020016040519081016040528092919081815260200182805461058e90610e44565b80156105db5780601f106105b0576101008083540402835291602001916105db565b820191906000526020600020905b8154815290600101906020018083116105be57829003601f168201915b505050505081526020019060010190610543565b5050505092508180548060200260200160405190810160405280929190818152602001828054801561067657602002820191906000526020600020905b8160009054906101000a900473ffffffffffffffffffffffffffffffffffffffff1673ffffffffffffffffffffffffffffffffffffffff168152602001906001019080831161062c575b50505050509150808054806020026020016040519081016040528092919081815260200182805480156106fe57602002820191906000526020600020905b8160009054906101000a900473ffffffffffffffffffffffffffffffffffffffff1673ffffffffffffffffffffffffffffffffffffffff16815260200190600101908083116106b4575b50505050509050925092509250909192565b828054828255906000526020600020908101928215610789579160200282015b828111156107885782518260006101000a81548173ffffffffffffffffffffffffffffffffffffffff021916908373ffffffffffffffffffffffffffffffffffffffff16021790555091602001919060010190610730565b5b509050610796919061079a565b5090565b5b808211156107b357600081600090555060010161079b565b5090565b600081519050919050565b600082825260208201905092915050565b6000819050602082019050919050565b600073ffffffffffffffffffffffffffffffffffffffff82169050919050565b600061080e826107e3565b9050919050565b61081e81610803565b82525050565b60006108308383610815565b60208301905092915050565b6000602082019050919050565b6000610854826107b7565b61085e81856107c2565b9350610869836107d3565b8060005b8381101561089a5781516108818882610824565b975061088c8361083c565b92505060018101905061086d565b5085935050505092915050565b600081519050919050565b600082825260208201905092915050565b6000819050602082019050919050565b600081519050919050565b600082825260208201905092915050565b60005b8381101561090d5780820151818401526020810190506108f2565b60008484015250505050565b6000601f19601f8301169050919050565b6000610935826108d3565b61093f81856108de565b935061094f8185602086016108ef565b61095881610919565b840191505092915050565b600061096f838361092a565b905092915050565b6000602082019050919050565b600061098f826108a7565b61099981856108b2565b9350836020820285016109ab856108c3565b8060005b858110156109e757848403895281516109c88582610963565b94506109d383610977565b925060208a019950506001810190506109af565b50829750879550505050505092915050565b600081519050919050565b600082825260208201905092915050565b6000819050602082019050919050565b600082825260208201905092915050565b6000610a41826107b7565b610a4b8185610a25565b9350610a56836107d3565b8060005b83811015610a87578151610a6e8882610824565b9750610a798361083c565b925050600181019050610a5a565b5085935050505092915050565b6000610aa08383610a36565b905092915050565b6000602082019050919050565b6000610ac0826109f9565b610aca8185610a04565b935083602082028501610adc85610a15565b8060005b85811015610b185784840389528151610af98582610a94565b9450610b0483610aa8565b925060208a01995050600181019050610ae0565b50829750879550505050505092915050565b60006060820190508181036000830152610b448186610849565b90508181036020830152610b588185610984565b90508181036040830152610b6c8184610ab5565b9050949350505050565b6000604051905090565b600080fd5b600080fd5b610b9381610803565b8114610b9e57600080fd5b50565b600081359050610bb081610b8a565b92915050565b600080fd5b600080fd5b7f4e487b7100000000000000000000000000000000000000000000000000000000600052604160045260246000fd5b610bf882610919565b810181811067ffffffffffffffff82111715610c1757610c16610bc0565b5b80604052505050565b6000610c2a610b76565b9050610c368282610bef565b919050565b600067ffffffffffffffff821115610c5657610c55610bc0565b5b610c5f82610919565b9050602081019050919050565b82818337600083830152505050565b6000610c8e610c8984610c3b565b610c20565b905082815260208101848484011115610caa57610ca9610bbb565b5b610cb5848285610c6c565b509392505050565b600082601f830112610cd257610cd1610bb6565b5b8135610ce2848260208601610c7b565b91505092915050565b600080600060608486031215610d0457610d03610b80565b5b6000610d1286828701610ba1565b935050602084013567ffffffffffffffff811115610d3357610d32610b85565b5b610d3f86828701610cbd565b9250506040610d5086828701610ba1565b9150509250925092565b600080600060608486031215610d7357610d72610b80565b5b6000610d8186828701610ba1565b9350506020610d9286828701610ba1565b925050604084013567ffffffffffffffff811115610db357610db2610b85565b5b610dbf86828701610cbd565b9150509250925092565b60006060820190508181036000830152610de38186610984565b90508181036020830152610df78185610849565b90508181036040830152610e0b8184610849565b9050949350505050565b7f4e487b7100000000000000000000000000000000000000000000000000000000600052602260045260246000fd5b60006002820490506001821680610e5c57607f821691505b602082108103610e6f57610e6e610e15565b5b50919050565b60008190508160005260206000209050919050565b60006020601f8301049050919050565b600082821b905092915050565b600060088302610ed77fffffffffffffffffffffffffffffffffffffffffffffffffffffffffffffffff82610e9a565b610ee18683610e9a565b95508019841693508086168417925050509392505050565b6000819050919050565b6000819050919050565b6000610f28610f23610f1e84610ef9565b610f03565b610ef9565b9050919050565b6000819050919050565b610f4283610f0d565b610f56610f4e82610f2f565b848454610ea7565b825550505050565b600090565b610f6b610f5e565b610f76818484610f39565b505050565b5b81811015610f9a57610f8f600082610f63565b600181019050610f7c565b5050565b601f821115610fdf57610fb081610e75565b610fb984610e8a565b81016020851015610fc8578190505b610fdc610fd485610e8a565b830182610f7b565b50505b505050565b600082821c905092915050565b600061100260001984600802610fe4565b1980831691505092915050565b600061101b8383610ff1565b9150826002028217905092915050565b611034826108d3565b67ffffffffffffffff81111561104d5761104c610bc0565b5b6110578254610e44565b611062828285610f9e565b600060209050601f8311600181146110955760008415611083578287015190505b61108d858261100f565b8655506110f5565b601f1984166110a386610e75565b60005b828110156110cb578489015182556001820191506020850194506020810190506110a6565b868310156110e857848901516110e4601f891682610ff1565b8355505b6001600288020188555050505b50505050505056fea264697066735822122099457c362598949da3d60536483e8862f2c9d932514b222f9abbb4b02352245664736f6c63430008130033",
  "immutableReferences": {},
  "source": "// SPDX-License-Identifier: MIT\r\npragma solidity 0.8.19;\r\n\r\ncontract communication {\r\n\r\n    string[] _messages;\r\n    address[] from_message;\r\n    address[] to_message;\r\n\r\n    address[]  from_file;\r\n    string[]  _filehash;\r\n    address[][] _owners; //to whom...\r\n\r\n    function sendMessage(address from,address to,string memory message) public{\r\n\r\n        _messages.push(message);\r\n        from_message.push(from);\r\n        to_message.push(to);\r\n    }\r\n\r\n    function viewMessages()public view returns(string[] memory,address[] memory,address[] memory){\r\n        return(_messages,from_message,to_message);\r\n    }\r\n\r\n    function sendFiles(address wallet,string memory filehash,address to) public{\r\n        \r\n        from_file.push(wallet);\r\n        _filehash.push(filehash);\r\n        _owners.push([to]);\r\n    }\r\n\r\n    function viewFiles() public view returns(address[] memory, string [] memory, address[][] memory)\r\n    {\r\n        return (from_file,_filehash,_owners);\r\n    }\r\n}\r\n",
  "sourcePath": "/Users/ms/Downloads/Quantum_Blockchian_integration1/contracts/communication.sol",
  "compiler": {
    "name": "solc",
    "version": "0.8.19+commit.7dd6d404.Emscripten.clang"
  },
  "schemaVersion": "3.4.16",
  "updatedAt": "2024-02-27T07:33:10.238Z",
  "networkType": "ethereum",
  "devdoc": {
    "kind": "dev",
    "methods": {},
    "version": 1
  },
  "userdoc": {
    "kind": "user",
    "methods": {},
    "version": 1
  }
}