{
  "contractName": "network",
  "abi": [
    {
      "inputs": [],
      "stateMutability": "nonpayable",
      "type": "constructor"
    },
    {
      "inputs": [
        {
          "internalType": "address",
          "name": "wallet",
          "type": "address"
        },
        {
          "internalType": "string",
          "name": "name",
          "type": "string"
        },
        {
          "internalType": "uint256",
          "name": "password",
          "type": "uint256"
        },
        {
          "internalType": "string",
          "name": "token",
          "type": "string"
        }
      ],
      "name": "addCommanders",
      "outputs": [],
      "stateMutability": "nonpayable",
      "type": "function"
    },
    {
      "inputs": [
        {
          "internalType": "address",
          "name": "wallet",
          "type": "address"
        },
        {
          "internalType": "uint256",
          "name": "password",
          "type": "uint256"
        }
      ],
      "name": "login",
      "outputs": [
        {
          "internalType": "bool",
          "name": "",
          "type": "bool"
        }
      ],
      "stateMutability": "view",
      "type": "function",
      "constant": true
    },
    {
      "inputs": [],
      "name": "viewCommanders",
      "outputs": [
        {
          "internalType": "address[]",
          "name": "",
          "type": "address[]"
        },
        {
          "internalType": "string[]",
          "name": "",
          "type": "string[]"
        },
        {
          "internalType": "uint256[]",
          "name": "",
          "type": "uint256[]"
        },
        {
          "internalType": "string[]",
          "name": "",
          "type": "string[]"
        }
      ],
      "stateMutability": "view",
      "type": "function",
      "constant": true
    },
    {
      "inputs": [
        {
          "internalType": "address",
          "name": "wallet",
          "type": "address"
        },
        {
          "internalType": "string",
          "name": "token",
          "type": "string"
        }
      ],
      "name": "verifyToken",
      "outputs": [
        {
          "internalType": "bool",
          "name": "",
          "type": "bool"
        }
      ],
      "stateMutability": "view",
      "type": "function",
      "constant": true
    }
  ],
  "bytecode": "0x608060405234801561001057600080fd5b50336000806101000a81548173ffffffffffffffffffffffffffffffffffffffff021916908373ffffffffffffffffffffffffffffffffffffffff160217905550611301806100606000396000f3fe608060405234801561001057600080fd5b506004361061004c5760003560e01c806310f5948a14610051578063726238191461006d5780638894b8631461009d5780638e866d6e146100cd575b600080fd5b61006b600480360381019061006691906109cb565b6100ee565b005b61008760048036038101906100829190610a6a565b6102f1565b6040516100949190610ac5565b60405180910390f35b6100b760048036038101906100b29190610ae0565b61041d565b6040516100c49190610ac5565b60405180910390f35b6100d5610541565b6040516100e59493929190610df9565b60405180910390f35b3373ffffffffffffffffffffffffffffffffffffffff1660008054906101000a900473ffffffffffffffffffffffffffffffffffffffff1673ffffffffffffffffffffffffffffffffffffffff161461014657600080fd5b600560008573ffffffffffffffffffffffffffffffffffffffff1673ffffffffffffffffffffffffffffffffffffffff16815260200190815260200160002060009054906101000a900460ff161561019d57600080fd5b6001849080600181540180825580915050600190039060005260206000200160009091909190916101000a81548173ffffffffffffffffffffffffffffffffffffffff021916908373ffffffffffffffffffffffffffffffffffffffff1602179055506003839080600181540180825580915050600190039060005260206000200160009091909190915090816102349190611066565b5060048290806001815401808255809150506001900390600052602060002001600090919091909150556002819080600181540180825580915050600190039060005260206000200160009091909190915090816102929190611066565b506001600560008673ffffffffffffffffffffffffffffffffffffffff1673ffffffffffffffffffffffffffffffffffffffff16815260200190815260200160002060006101000a81548160ff02191690831515021790555050505050565b6000600560008473ffffffffffffffffffffffffffffffffffffffff1673ffffffffffffffffffffffffffffffffffffffff16815260200190815260200160002060009054906101000a900460ff1661034957600080fd5b60005b600180549050811015610411578373ffffffffffffffffffffffffffffffffffffffff166001828154811061038457610383611138565b5b9060005260206000200160009054906101000a900473ffffffffffffffffffffffffffffffffffffffff1673ffffffffffffffffffffffffffffffffffffffff161480156103ef575082600482815481106103e2576103e1611138565b5b9060005260206000200154145b156103fe576001915050610417565b808061040990611196565b91505061034c565b50600090505b92915050565b600080600090505b600280549050811015610535576001818154811061044657610445611138565b5b9060005260206000200160009054906101000a900473ffffffffffffffffffffffffffffffffffffffff1673ffffffffffffffffffffffffffffffffffffffff168473ffffffffffffffffffffffffffffffffffffffff161480156105135750600281815481106104ba576104b9611138565b5b906000526020600020016040516020016104d4919061126c565b60405160208183030381529060405280519060200120836040516020016104fb91906112b4565b60405160208183030381529060405280519060200120145b1561052257600191505061053b565b808061052d90611196565b915050610425565b60009150505b92915050565b6060806060806001600360046002838054806020026020016040519081016040528092919081815260200182805480156105d057602002820191906000526020600020905b8160009054906101000a900473ffffffffffffffffffffffffffffffffffffffff1673ffffffffffffffffffffffffffffffffffffffff1681526020019060010190808311610586575b5050505050935082805480602002602001604051908101604052809291908181526020016000905b828210156106a457838290600052602060002001805461061790610e89565b80601f016020809104026020016040519081016040528092919081815260200182805461064390610e89565b80156106905780601f1061066557610100808354040283529160200191610690565b820191906000526020600020905b81548152906001019060200180831161067357829003601f168201915b5050505050815260200190600101906105f8565b505050509250818054806020026020016040519081016040528092919081815260200182805480156106f557602002820191906000526020600020905b8154815260200190600101908083116106e1575b5050505050915080805480602002602001604051908101604052809291908181526020016000905b828210156107c957838290600052602060002001805461073c90610e89565b80601f016020809104026020016040519081016040528092919081815260200182805461076890610e89565b80156107b55780601f1061078a576101008083540402835291602001916107b5565b820191906000526020600020905b81548152906001019060200180831161079857829003601f168201915b50505050508152602001906001019061071d565b505050509050935093509350935090919293565b6000604051905090565b600080fd5b600080fd5b600073ffffffffffffffffffffffffffffffffffffffff82169050919050565b600061081c826107f1565b9050919050565b61082c81610811565b811461083757600080fd5b50565b60008135905061084981610823565b92915050565b600080fd5b600080fd5b6000601f19601f8301169050919050565b7f4e487b7100000000000000000000000000000000000000000000000000000000600052604160045260246000fd5b6108a282610859565b810181811067ffffffffffffffff821117156108c1576108c061086a565b5b80604052505050565b60006108d46107dd565b90506108e08282610899565b919050565b600067ffffffffffffffff821115610900576108ff61086a565b5b61090982610859565b9050602081019050919050565b82818337600083830152505050565b6000610938610933846108e5565b6108ca565b90508281526020810184848401111561095457610953610854565b5b61095f848285610916565b509392505050565b600082601f83011261097c5761097b61084f565b5b813561098c848260208601610925565b91505092915050565b6000819050919050565b6109a881610995565b81146109b357600080fd5b50565b6000813590506109c58161099f565b92915050565b600080600080608085870312156109e5576109e46107e7565b5b60006109f38782880161083a565b945050602085013567ffffffffffffffff811115610a1457610a136107ec565b5b610a2087828801610967565b9350506040610a31878288016109b6565b925050606085013567ffffffffffffffff811115610a5257610a516107ec565b5b610a5e87828801610967565b91505092959194509250565b60008060408385031215610a8157610a806107e7565b5b6000610a8f8582860161083a565b9250506020610aa0858286016109b6565b9150509250929050565b60008115159050919050565b610abf81610aaa565b82525050565b6000602082019050610ada6000830184610ab6565b92915050565b60008060408385031215610af757610af66107e7565b5b6000610b058582860161083a565b925050602083013567ffffffffffffffff811115610b2657610b256107ec565b5b610b3285828601610967565b9150509250929050565b600081519050919050565b600082825260208201905092915050565b6000819050602082019050919050565b610b7181610811565b82525050565b6000610b838383610b68565b60208301905092915050565b6000602082019050919050565b6000610ba782610b3c565b610bb18185610b47565b9350610bbc83610b58565b8060005b83811015610bed578151610bd48882610b77565b9750610bdf83610b8f565b925050600181019050610bc0565b5085935050505092915050565b600081519050919050565b600082825260208201905092915050565b6000819050602082019050919050565b600081519050919050565b600082825260208201905092915050565b60005b83811015610c60578082015181840152602081019050610c45565b60008484015250505050565b6000610c7782610c26565b610c818185610c31565b9350610c91818560208601610c42565b610c9a81610859565b840191505092915050565b6000610cb18383610c6c565b905092915050565b6000602082019050919050565b6000610cd182610bfa565b610cdb8185610c05565b935083602082028501610ced85610c16565b8060005b85811015610d295784840389528151610d0a8582610ca5565b9450610d1583610cb9565b925060208a01995050600181019050610cf1565b50829750879550505050505092915050565b600081519050919050565b600082825260208201905092915050565b6000819050602082019050919050565b610d7081610995565b82525050565b6000610d828383610d67565b60208301905092915050565b6000602082019050919050565b6000610da682610d3b565b610db08185610d46565b9350610dbb83610d57565b8060005b83811015610dec578151610dd38882610d76565b9750610dde83610d8e565b925050600181019050610dbf565b5085935050505092915050565b60006080820190508181036000830152610e138187610b9c565b90508181036020830152610e278186610cc6565b90508181036040830152610e3b8185610d9b565b90508181036060830152610e4f8184610cc6565b905095945050505050565b7f4e487b7100000000000000000000000000000000000000000000000000000000600052602260045260246000fd5b60006002820490506001821680610ea157607f821691505b602082108103610eb457610eb3610e5a565b5b50919050565b60008190508160005260206000209050919050565b60006020601f8301049050919050565b600082821b905092915050565b600060088302610f1c7fffffffffffffffffffffffffffffffffffffffffffffffffffffffffffffffff82610edf565b610f268683610edf565b95508019841693508086168417925050509392505050565b6000819050919050565b6000610f63610f5e610f5984610995565b610f3e565b610995565b9050919050565b6000819050919050565b610f7d83610f48565b610f91610f8982610f6a565b848454610eec565b825550505050565b600090565b610fa6610f99565b610fb1818484610f74565b505050565b5b81811015610fd557610fca600082610f9e565b600181019050610fb7565b5050565b601f82111561101a57610feb81610eba565b610ff484610ecf565b81016020851015611003578190505b61101761100f85610ecf565b830182610fb6565b50505b505050565b600082821c905092915050565b600061103d6000198460080261101f565b1980831691505092915050565b6000611056838361102c565b9150826002028217905092915050565b61106f82610c26565b67ffffffffffffffff8111156110885761108761086a565b5b6110928254610e89565b61109d828285610fd9565b600060209050601f8311600181146110d057600084156110be578287015190505b6110c8858261104a565b865550611130565b601f1984166110de86610eba565b60005b82811015611106578489015182556001820191506020850194506020810190506110e1565b86831015611123578489015161111f601f89168261102c565b8355505b6001600288020188555050505b505050505050565b7f4e487b7100000000000000000000000000000000000000000000000000000000600052603260045260246000fd5b7f4e487b7100000000000000000000000000000000000000000000000000000000600052601160045260246000fd5b60006111a182610995565b91507fffffffffffffffffffffffffffffffffffffffffffffffffffffffffffffffff82036111d3576111d2611167565b5b600182019050919050565b600081905092915050565b600081546111f681610e89565b61120081866111de565b9450600182166000811461121b576001811461123057611263565b60ff1983168652811515820286019350611263565b61123985610eba565b60005b8381101561125b5781548189015260018201915060208101905061123c565b838801955050505b50505092915050565b600061127882846111e9565b915081905092915050565b600061128e82610c26565b61129881856111de565b93506112a8818560208601610c42565b80840191505092915050565b60006112c08284611283565b91508190509291505056fea26469706673582212208f207559389a84b134f4638f28697b1c356998d30e1d21131a3e0a511871f3c764736f6c63430008130033",
  "immutableReferences": {},
  "source": "// SPDX-License-Identifier: MIT\r\npragma solidity 0.8.19;\r\n\r\ncontract network {\r\n\r\n    address owner;\r\n\r\n    address[] _commanders;\r\n    string[] _quantumtokens;\r\n    string [] _commandernames;\r\n    uint[] _commanderpasswords;\r\n\r\n    mapping(address=> bool) _c;\r\n\r\n\r\n    constructor(){\r\n        owner= msg.sender;\r\n    }\r\n\r\n    modifier onlyOwner{\r\n        require(owner==msg.sender);\r\n        _;\r\n    }\r\n\r\n    function addCommanders(address wallet,string memory name,uint password,string memory token) public onlyOwner {\r\n\r\n        require(!_c[wallet]);\r\n\r\n        _commanders.push(wallet);\r\n        _commandernames.push(name);\r\n        _commanderpasswords.push(password);\r\n        _quantumtokens.push(token);\r\n        _c[wallet]=true;\r\n    }\r\n\r\n    function login(address wallet,uint password) public view returns(bool){\r\n\r\n        require(_c[wallet]);\r\n        for(uint i=0;i<_commanders.length;i++)\r\n        {\r\n            if(_commanders[i]==wallet && _commanderpasswords[i]==password)\r\n            {\r\n                return true;\r\n            }\r\n        }\r\n\r\n        return false;\r\n    }\r\n\r\n    function viewCommanders() public view returns(address[] memory ,string[] memory,uint[] memory,string[] memory){\r\n        return( _commanders,_commandernames,_commanderpasswords,_quantumtokens);\r\n    }\r\n\r\n    function verifyToken(address wallet,string memory token) public view returns(bool){\r\n        uint i;\r\n\r\n        for(i=0;i<_quantumtokens.length;i++){\r\n            if(wallet==_commanders[i] && (keccak256(abi.encodePacked(token)) == keccak256(abi.encodePacked(_quantumtokens[i])))){\r\n                return true;\r\n            }\r\n        }\r\n        return false;\r\n    }\r\n\r\n}",
  "sourcePath": "/Users/ms/Downloads/Quantum_Blockchian_integration1/contracts/network.sol",
  "compiler": {
    "name": "solc",
    "version": "0.8.19+commit.7dd6d404.Emscripten.clang"
  },
  "schemaVersion": "3.4.16",
  "updatedAt": "2024-02-27T07:33:10.169Z",
  "networkType": "ethereum",
  "devdoc": {
    "kind": "dev",
    "methods": {},
    "version": 1
  },
  "userdoc": {
    "kind": "user",
    "methods": {},
    "version": 1
  }
}